:20000000E43F00201541000001CA011001CA011001CA011001CA011001CA011001CA01101F
:1C00200001CA011001CA011001CA011001CA011001CA011001CA01103FCA011082
:20003C0041F21C3010B5C5F200000468B4F1FF3F08BF002405F012FF40F2844346F25C01DB
:20005C00002242F2082E012040F2801CC4F26023C4F20C011A60C4F2043E0860C4F2283C19
:20007C00CEF80000DCF8000038B140F20010C4F220300068204600F0ABFA44F20402C4F244
:20009C0003021068052142F24803C2F20001C4F2030320F003000143116019684FF0000E1B
:2000BC00C0F2391E6FF35B414EEA01000421C4F2090118600868C0F30130012809D10A68BE
:2000DC004FF6FF70CFF6FC40104040F400320A60086010BD024902680A60406848607047D4
:0400FC002720002099
:200100003C000000000000000000000034010000000000000000000001000000000000006D
:1C01200000000000000000000000000001000000000000000800000000000000BA
:20013C00340000000000000000000000680100000000000000000000010000000000000005
:14015C00010000000000000000000000080000000000000086
:2001700030000000000000000000000098010000040000000000000001000000FFFFFFFFA5
:10019000FF00000001000000080000000000000057
:2001A0002C0000000000000000000000C4010000040000000000000001000000FFFFFFFF4D
:0C01C000FFFFFFFF08000000000000002F
:2001CC0034050000E401000099A1011095A70110A5C2011009B2011045B80110000000000B
:0801EC00000000002D000000DE
:2001F400280000000000000000000000140200000000000000000000FFFFFFFF00000000B1
:080214000800000000000000DA
:20021C00300500003002000069C201106DC101101FC2011095BA011000000000000000008E
:04023C002F0000008F
:20024000300500005402000075C20110A9B601109DBF011049B601100000000000000000DE
:04026000300000006A
:200264002400000000000000000000008002000000000000000000000000000008000000CC
:040284000000000076
:20028800240000000000000000000000A40200000000000000000000000000000800000084
:0402A8000000000052
:2002AC00240000000000000000000000C8020000000000000100000000000000080000003B
:0402CC00000000002E
:2002D00000000000E82600200400000000000000000000002000000070010000300000001B
:2002F0001C020000F02600200400000000000000000000000C00000030040000180000003E
:2003100040020000F8260020040000000000000000000000240000004804000018000000C1
:20033000000000000027002004000000000000000000000010000000A00100002C00000085
:20035000CC01000008270020040000000000000000000000200000006402000024000000C3
:20037000FFFFFFFF1027002004000000000000000000000028000000880200002400000040
:20039000FFFFFFFF18270020040000000000000000000000580000003C0100003400000025
:2003B000FFFFFFFF202700200400000000000000000000001000000060040000180000003A
:2003D000FFFFFFFF282700200400000000000000000000001C000000AC02000024000000B0
:2003F000FFFFFFFF3027002004000000000000000000000038000000F40100002800000021
:20041000FFFFFFFF3827002004000000000000000000000054000000000100003C000000BC
:1804300018000000000000000000000040040000080000000000000050
:1804480018000000000000000000000058040000080000000000000020
:18046000180000000000000000000000700400000800000000000000F0
:0804780002000000907E00006C
:0404800005F07ABE4B
:040484000100000073
:0404880000000E0F53
:04048C0000003E0F1F
:040490003200000036
:040494000200000062
:0404980074250020A7
:04049C00000200005A
:0404A000A95D000052
:0404A40001CA011078
:0404A8000000000050
:0404AC00000000004C
:0404B0000800000040
:0404B4000000CE1165
:0404B80008250020F3
:0404BC00010000003B
:0404C0006C26002086
:0404C400080000002C
:0404C8000000000030
:0404CC00000000002C
:0404D0000000000028
:0404D4000000000024
:0404D8000000000020
:0404DC00010000001B
:0404E000D4250020FF
:0404E400060000000E
:0404E800010000000F
:0404EC007424002054
:0404F0000000000008
:0404F4000000000004
:0404F80000020000FE
:0404FC0000000000FC
:02050000704742
:020502002900CE
:020504000100F4
:020506002400CF
:020508002F00C2
:02050A003000BF
:02050C002D00C0
:02050E000100EA
:0105100001E9
:0805140003000000647E0000FA
:08051C000000000000000000D7
:040524000000A10D25
:040528000000BB0D07
:04052C0087C401106F
:04053000380500008A
:040534003805000086
:0405380000000000BF
:04053C0080610000DA
:0405400080610000D6
:0405440000000000B3
:040548006C260020FD
:04054C00015F00004B
:040550002000000087
:04055400007E000025
:04055800507D0000D2
:04055C000DC30110BA
:04056000CF40000088
:040564002B45000023
:0405680099C801101D
:04056C009BC8011017
:040570000000000087
:040574009C63000084
:04057800007C000003
:04057C00187C0000E7
:04058000E87B000014
:020584000280F3
:020586000380F0
:02058800421718
:02058A0001006E
:01058C00016D
:040590000000000067
:040594000000000063
:04059800000000005F
:04059C00000000005B
:0405A000215D0000D9
:0405A400AD44000062
:0405A80059550000A1
:0405AC009D4100006D
:0405B000053700000B
:0405B40059480000A2
:0405B800692D0000A9
:0405BC00E9580000FA
:0405C000653700009B
:0405C40011C8011049
:0405C80021C8011035
:0405CC000800000023
:0405D0002400000003
:0405D400180000000B
:0405D80028000000F7
:0405DC0020000000FB
:0405E0003C000000DB
:0405E4000C00000007
:0405E80034000000DB
:2005EC002DE9F84F054640F29421012441F22D00C4F22231C4F2090040F81D4C086810B939
:20060C0008680028FAD046F2000043F6B477C021C4F20C00C5F2000701603E6857F8040C09
:20062C0046F25622C4F20802800806D257F8080C000C40F0F000107001E07220107041F2A9
:20064C00B820C5F200000068C0F3046005F0C5FC39680B171B185B1C13F10A0FB8BF6FF06A
:20066C0009034FF0000CF10EB00E03F01F0381F00101C4F2203C80F0010043F4F85301F0DC
:20068C000101138300F00100CCF800103146CCF80800284601F06CFC814605F00DFD002100
:2006AC00002808BF211C48F20008C4F20C08D8F8000018B9D8F800000028F8D04AF2080A47
:2006CC00C4F20C0ACAF81090C8F8004009B105F0F9FC284605F092F840F2FF32002380B297
:2006EC002C2100904AF20000C4F20C0003F062F8284605F04FFA814605F0DEFC002100283B
:20070C0008BF211CD8F8000018B9D8F800000028F8D0CAF81490C8F8004009B105F0D2FC85
:20072C00284604F05EFE814605F0C6FC0021002808BF211CD8F8000018B9D8F8000000288B
:20074C00F8D0CAF80C90C8F8004009B105F0BAFC284604F0FFFF814605F0AEFC00210028F3
:20076C0008BF211CD8F8000018B9D8F800000028F8D0CAF80890C8F8004009B105F0A2FC61
:20078C00284602F087F9814605F096FC0021002808BF211CD8F8000018B9D8F80000002839
:2007AC00F8D0CAF80490C8F8004009B105F08AFC284605F0BFF94AF24009C4F20C0940002F
:2007CC0040F0200089F80901284605F0BFF940F0100089F80901284605F020F8834605F013
:2007EC006BFC0021002808BF211CD8F8000018B9D8F800000028F8D0CAF820B0C8F8004046
:20080C0009B105F05FFC284605F0ACF9400040F0600089F80C01284605F0B0F9C00040F060
:20082C00800089F80101284605F0C0F9800040F47C40A9F89C01284604F004FC834605F0BF
:20084C003BFC0021002808BF211CD8F8000018B9D8F800000028F8D0CAF800B0C8F8004035
:20086C0009B105F02FFC442089F8C5004FF0880E89F8C7E0284605F065FA40F03001C6F30F
:20088C00815089F8C81078B3401E06D0401E26D00420022103F063F930E0204604F092FEDF
:2008AC0005460420294603F05AF9042004F08AFE8542FAD157F80C5C25F07F4004F088F9D6
:2008CC0040F2B410C1F200000068036807214FF06022280E98474FF48060C9F8000004208A
:2008EC00032103F03CF909E00420214603F037F943F2BD70C0F2860004F06AF941F2B8200D
:20090C00C5F20000D0F8B4004BF2700242F22C0E46F2000B47F618014FF0000C41F22D0A2D
:20092C00C4F20C02C4F2090E40F2944800F03F0089F8CB0FC4F20C0B1180DEF80000CBF88B
:20094C0000C0C4F2090A4AF81DCCC4F26028C8F80040BDE8F88F70472DE9F84FC64DC74E31
:20096C00D5F8EF1FCC4C7368D5F8F30F8843C5F8F30F002BC5F8FF1F00F011817788012B91
:20098C0000F0D680DFF8FCB2BF4FDFF800A3DFF80093DFF80083022B72D0032B40F06A817C
:2009AC000024B06855F8312C74600028A2F5C062B8BF404211460029B8BF494288422EDA43
:2009CC00111C54BF02206FF00100B26900EB4100032190FBF1F18918B161F36870699842B0
:2009EC000BD0B1F11002B8BF524230691038B8BF40428242B8BF88B209DB98B20090A0485C
:200A0C0030214FF47F42082302F0D4FE308A00909B4804214FF4F802122302F0CBFE584669
:200A2C00046001688908FCD20460012644600E203E6001F0E1FC50460468EFF3118584F3C4
:200A4C00118849460820B0FA80F00A1AD07F431E0128D37704D14246106820F0080010607C
:200A6C0085F31188EFF3118384F311880420B0FA80F0091AC87F421E0128CA7754D14EE00E
:200A8C0055F8310CB0F5C06F17D00327776001F0F7F845F8397C0027276020688008FCD2A6
:200AAC007748394660220523009102F083FE0126266020688008FCD364E0002171605846DE
:200ACC00016002689208FCD20160012641600E203E6001F091FC50460468EFF3118584F373
:200AEC00118849460820B0FA80F00A1AD07F431E0128D37704D14246106820F008001060DC
:200B0C0085F31188EFF3118384F311880420B0FA80F0091AC87F421E0128CA7704D1424663
:200B2C00106820F00400106083F31188BDE8F88F55F8312C02214BF2F52071605043000AE5
:200B4C0037B95649096821F07F414018400801E0002171806060000CA0600126E6600327C2
:200B6C0045F8397C0027276020688008FCD24448394660220523009102F01CFE266020688B
:200B8C008008FCD345F8216C45F8397C0820C5F8FF0FC5F8F30F45F8396CBDE8F88F4048EE
:200BAC000068006801462020884741F61D574FF002080F2045F82D0C00214FF4C0720723AA
:200BCC0045F8297C2E48CDF8008002F0F3FD012744F8047C54F8040C8008FBD3308845F8FF
:200BEC001D7C012821D0032045F8390C4FF00009C4F8009020688008FCD2214849466022A5
:200C0C000523009102F0D6FD276020688008FCD345F8217C45F8399C0820C5F8FF0FC5F848
:200C2C00F30F45F8397C474623E04FF00009C4F80C90032045F8390CC4F800902068800883
:200C4C00FCD20F48CDF8008049466022052302F0B1FD276020688008FCD3202045F8210C35
:200C6C0045F8399C0824C5F8FF4FC5F8F34F45F8397C7760BDE8F88F39400C4034260020EC
:200C8C0000A00C4034600C4004800C40B87E000048270020A823002038600C40102009409F
:200CAC00A00100102DE9F04F8146B9F1010FADF11C0D40F05781AD480068EFF3118280F38D
:200CCC001188DFF8CCB29BF80400012818BF012003D1022100208BF8041082F3118801287D
:200CEC0000F03E8105F050FB0390AA48046804EB0B0005F045FB4FF00008464637460BEB93
:200D0C000401CDF810800191B0B90C46084605F033FB0546A868400808D3E8682969024607
:200D2C0001209047C0B2012800F01281284605F01FFB0546AC42EDD1002F40F00D8105F03B
:200D4C0013FB029005978A480760012004F03AFC012804D1404603F063FB4FF00108854FD6
:200D6C0038688068014630468847874819300090D0F8FF0FB9F1010F40F08C80864C0A34CF
:200D8C00E57905B10126A5790DB146F0020665790DB146F00406DFF8E09165782DB1B86AF1
:200DAC00006B49460246C88D904725782DB1B86A006B49460246488D9047704901200860EC
:200DCC00B86A8069014646F0200088476C4DDBF80010286840F001002860480813D26948C5
:200DEC0005F0EDF88246BAF1040FF8D0D5F8180220F00300C5F81802B86C40680246614831
:200E0C000321904701E001200490059800F0F0FCB86A0099806BD1F8FF1F8047049858B9BB
:200E2C00B86C40680246574851469047D5F8180240F00300C5F818023868806801460120A4
:200E4C008847514801688909FCD3B8F1010F02D1012003F0E5FAB86A40690146304688477E
:200E6C00B86A406B0146304688470128F8D166782EB1B86AC06A49460246C88D9047267871
:200E8C002EB1B86AC06A49460246488D90473B49012008603A480168032221F00101016007
:200EAC0001988BF8042005F06BFA0028059818BF01200125C8B9019C204605F05DFA06468D
:200ECC00B068C00807D3F0683169024604209047C0B2012806D0304605F04AFA0646B442B5
:200EEC00EED102E02948006880472148009F0560D7F8FF0F05F0E6F8019805F041FA059F1B
:200F0C00D0B9019C204605F037FA0646B068000907D3F0683169024608209047C0B20128F8
:200F2C0006D0304605F024FA0646B442EED103E0164800688047022702988BF8045005F046
:200F4C000FFA02F077FB039805F006FA38460AE00E4800688047022701208BF80400F2E7F1
:200F6C00062000E0022007B0BDE8F08FB87E00000C400940900100109C7B0000282008602F
:200F8C000C2008400040034014100940AC7E0000A8230020A87E000084260020F8B5A0F29D
:200FAC00013517460E46022D40F20A81874A8549854B2D1F0F2D04D9143D4AD0AD1E1CD05C
:200FCC0011E0DFE815F0B900B400EA00DA00AD00A600FD009E00970010001000900086005C
:200FEC0079006E006000272880F2EA80022E40F0E780398803F002FDF8BD012E40F0E08085
:20100C000A469078012800F0DB80D1783878D07081B9002800F0D4801078012800F09F8059
:20102C00042800F09C80062800F09980052800F09680F8BD3878002840F0C2801078032850
:20104C0000F09880072800F09580052800F09280F8BD012E40F0B4803878012840F0B08098
:20106C001D4605F1F00004F077FF002840F0A880002002F075F9002840F0A2802846CC30CD
:20108C0005F0A0F8F8BD022E40F09A8038880A28C0F29680B0F5486F00F3928011461E31C7
:2010AC0015E0022E40F08C803888B0F5FA7F80F2878011461C310AE0022E40F081803888BD
:2010CC0006287DDBB0F5486F7ADC11461A310880F8BD022E74D13888062871DBB0F5486FE2
:2010EC006EDC1731F3E7012E6AD13878022867DA0A310CE0012E63D13878042860DA093119
:20110C0005E0012E5CD13878082859DA08310870F8BD012E54D13878042851DAC91DF6E7EB
:20112C00012E4DD1387804284ADC891DEFE7022E46D138881331CAE7012E41D10A46D07803
:20114C0001283DD091783878907061B9002837D01078012803D0042818BF052830D1012075
:20116C0004F09CFDF8BD387850BB1078022818BF052825D104F0C8FEF8BD1D4605F1890465
:20118C0000211F22204601F0F5FE39463246204601F09CFB0020AE710EE01D4605F16A04BE
:2011AC0000211F22204601F0E5FE39463246204601F08CFB01206E713146224602F020FDC4
:2011CC00F8BDC046AD1C0020AC1C0020AC1C00202DE9F0410446DFF81C82A2780026101C1D
:2011EC0000F0D780801E00F0B180401E012840F28780801E52D0401E26D0401E03D0083898
:20120C0000F0EA80EBE0454605F1F00004F0DAFF6078002840F0E380E08828842089688423
:20122C006089A88405F1CC0004F096FE002840F0D6806B6B002B00F0D2801B68288C698C26
:20124C00AA8C9847BDE8F081A08804F0CEF945463146062205F1440001F08CFE2E846E84F1
:20126C00AE84A079687305F1CC0004F0ABFF05F1F00004F0A7FF01264FF6FF702F79E8826F
:20128C004FB9A079082814BF042005206870304604F004FDA3E003206870A0E0454667782A
:2012AC00EA7A2FBB211D0B6805F1440003608988818006276F706089E882E0892884208A56
:2012CC006884608AA884E078012A28730AD11F2003F026F94FF47A71024605F1CC005143EA
:2012EC0003F060FAE0786289211D03F0EBF978E06078312818BF08201CD1EE70042019E04D
:20130C006778002F63D14546A98A6878032A13D0EA782F7921B9012A14BF2E71EE7006E00C
:20132C00174304D005F1A80003F03CFA68780728E4D10620687054E0062805D0E87800282B
:20134C000CBF03200220F5E70720F3E76078651C00283CD14046E77881798FB941780229FB
:20136C0014D0072912D0062902D1017901290DD1A83004F0F1FD48B9012004F08FFC05E0A7
:20138C0000F18902304602F03BFC28702878F0B925E06078D8B945460220102105F14A02B7
:2013AC0003F064FC0320102105F15A0203F05EFCE41C05F13800A7882168878005F16A028C
:2013CC00016001206979687002F01AFC48B1454608206D1C287004E0A08804F03DFE012E86
:2013EC0006D14546286B18B1016809B168788847BDE8F081AC1C00202DE9F047ADF1800DDB
:20140C0004F02CF8784C002104F14005284604F09FFF04F1580004F16401E56001F082FB2F
:20142C00A06108B904F090FF04F14C0004F1700101F078FB606110B904F086FF60696B49D0
:20144C0004F046FE08B104F07FFF03A800212422082304F075FF674FDFF8949100264FF45D
:20146C007A78322504F1B40003AB39680996B8FBF1F18AB26A43494604F05EFF39684FF042
:20148C00040A04F1D80003ABCDF824A0B8FBF1F189B24D432A46494604F04EFF012540F236
:2014AC0005308DF80A500DF10A02ADF808602946FFF774FD40F20630022102AAFFF76EFD87
:2014CC004FF4427022462946FFF768FD04F18C0240F207301121FFF761FD0620A02103F08D
:2014EC008DFA0720A02103F089FA0820A02103F085FA0920A02103F081FA28461E2103F0A8
:20150C007DFA01962C468DF801604FF481608DF8034051468DF8024001AA8DF8004003F0AC
:20152C0053FA4FF4806029460DF1030203F04CFA40F2024029460DF1020203F045FA40F23B
:20154C00034029460DF1010203F03EFA40F2064029466A4603F038FA04F0FFFDFEF78AFF77
:20156C0004F052FC04F084FD04F062FC02F0B8FE03F010FA04F066FC04F032FC04F03AFC0F
:20158C0028220CA8314601F0F5FC1B4916A8282201F09CF9304629460CAA03F0ABFC284653
:2015AC0029460CAA03F0A6FC304629460CAA02F087F9284629460CAA02F082F93046282199
:2015CC0016AA01F0A1FF284614210CAA01F09CFF04F08CFA03F0C0FD04F0B6FD04F0BAFD4D
:2015EC0020B0BDE8F087C04618180020E154000001330000BC7E0000417C00002DE9F041F6
:20160C001C4615468C4208BF854282BF00230022E5E0002C08BF002D0AD100290EBF002841
:20162C006FF000006FF0000100F0E1F8BDE8F0815FF000085FF0000E002C08BF8D429CBF2F
:20164C002C1C0025070C47EA01470E0CB44208BFBD429EBF5FEA044444EA15445FEA0545A7
:20166C00070A47EA01670E0AB44208BFBD429EBF5FEA042444EA15645FEA0525470847EA78
:20168C00C1774E08B44208BFBD4200F29380870847EA81778E08B44208BFBD427CD8C708C2
:2016AC0047EA4177CE08B44208BFBD4266D8070947EA01770E09B44208BFBD4250D8470961
:2016CC0047EAC1674E09B44208BFBD423AD8870947EA81678E09B44208BFBD4224D8C709B8
:2016EC0047EA4167CE09B44208BFBD420DD8E60146EA5566EF01B14208BFB84201D3C01B68
:20170C00B14158EB08085EEB0E0EA60146EA95664FEA8517B14208BFB84201D3C01BB14117
:20172C0058EB08084EEB0E0E660146EAD5666F01B14208BFB84201D3C01BB14158EB08080B
:20174C004EEB0E0E260146EA15762F01B14208BFB84201D3C01BB14158EB08085EEB0E0E09
:20176C00E60046EA5576EF00B14208BFB84201D3C01BB14158EB08084EEB0E0EA60046EABA
:20178C009576AF00B14208BFB84201D3C01BB14158EB08084EEB0E0E660046EAD5766F0036
:2017AC00B14208BFB84201D3C01BB14158EB08085EEB0E0EA14208BFA84201D3401BA1416B
:2017CC0058EB08085EEB0E0EA34208BFAA423EBF2D0A45EA0465240A89D3734642461E46B2
:2017EC0017460B46024631463846BDE8F0817047F8B507460020C4F209000068800880F0EC
:20180C00CA8003F092FC42F22421C4F208010A68002112F0030F18BF0121D20828BF41F027
:20182C000201002F18BF41F0040141F60006C2F2000696F90720821A052A04DAB2798A4210
:20184C0008BFB28871D041F29C340F28A0F10F02C5F2000426DB02EB0012F03A1712072F1A
:20186C0088BF0727BC46BCF1060F88BF4FF0060C54F82CE00423254603EB8C03EB58CD080C
:20188C00A3EB0E0303F0FF0C24BFC3F30725AC448D0824BFC3F30745AC444D0805D30CEB5C
:2018AC00136C02E04FF0000C674654F82730CC0803F0FF0524BFC3F3072425448C0824BFB1
:2018CC00C3F3074425444C0828BF05EB1365A2EB07221FFA8CF3534380330022082B88BFBC
:2018EC00012243F6B473C5F200031C681B684FF4D07C34275219241703F0FF0307FB14C439
:20190C005C434FF6FF73B4FBF2F2934238BF1A1C802892B2B28005DA10F1800F03DA6FF007
:20192C007F0000E07F20F071B17142F20800C4F2090001681F2A4FF00000316015D340F283
:20194C00FF13934213D219465208401C93420ED25208401C93420AD25208401C914206D21D
:20196C005208401C9142EFD301E01F22B2800F3A4FF600714FF0350E1209C8F2A401C4F20B
:20198C00090E40EAC2000143CEF8FB1F4FF0000CCEF8FFCFF8BD41F606024FF6FD50082186
:2019AC0041F2300EC2F20002C0F2A4001170C4F2090ECEF80000F8BD2DE9F04F8346ADF119
:2019CC005C0D02F0CCFF0026012804D104F082F8022808BF012654490868C0F38150012871
:2019EC0005D151F80C1C0120090E884006434F494F48504C09780068C0F34600206002F02C
:201A0C00AEFFA046012818BFD8F8000004D1D8F80000401CC8F80000DFF81CA130B1524689
:201A2C00FF2107467F1E02F8011BFBD1DBF80020002702F0FF01FF2919D094465146DE46FC
:201A4C003B4601250CF0FF02904203D905FA02F4264201D0022064E00CF0FF025EF804CF6E
:201A6C008B5427435B1C0CF0FF02FF2AECD1092000F056FC3648002124220823C0F800B0D4
:201A8C0001A804F055FC4FF0010901AA31488DF81C90494604F048FCD8F8003023B32E4C97
:201AAC000025AA4609FA05F0064217D1074204BF05F0FF0141F4C04103D01F48405D5BF87C
:201ACC0020101E4800F000FDE8B24FF0FF3103F06DFFD8F80030C4F800A001E0042020602E
:201AEC006D1C241D9D42DDD30AA800213022082304F016FC002410210AAB1148114A0094D9
:201B0C0004F00AFC104A52F80D0C494620F4F85040F4005042F80D0C0C4BC2F8FF1F2046AB
:201B2C00196017B0BDE8F08FB43F005010180020801208400818002084170020007FC76728
:201B4C00A4170020C93E00000D300940080009400C180020C0170020081700202DE9F04FF1
:201B6C000C4646498A8BADF13C0D84460992487B0D90CE7800964A8B0892888C0C900A8B27
:201B8C00488C079291F80CE00B908E78CA7A088C0692CB8A0A908A7A91F804A005924A7ACB
:201BAC00C88B04920A7A91F801800392CA798D8A02928A79CF6A01924A79E146A9F540790F
:201BCC00B9F11D0F10D8DFE809F0554F4D4B49474543403D3B393634320F312F2D2B2A2485
:201BEC00211F1D0F1A191816BCF1270F43DA604602F096FC13E0DDF834E0F246D046CDF8F3
:201C0C00148016E00C980B900B980A900A98054620E04431086820608888A0802BE009908C
:201C2C00099808900898079007980690069B238021E0059804900498039001E03E31E9E72E
:201C4C00039802900298009006E0019A89310DE06A310BE02846E2E7009E0BE03831D9E78A
:201C6C00276008E05A3100E04A311022204600F02DFE00E026700FB0BDE8F08FAC1C00200F
:201C8C002DE9F843804604F017FA002100B901213A4D2D1F28680028FCD0DFF8DC9001265F
:201CAC0009F10407FC6A2E6009B104F00BFA3448C4F3072100F10804616004F0FDF9014622
:201CCC00002001B93046014628680028FCD03F682E6009B104F0F6F9C7F38441A8F5C060CF
:201CEC00A160B8F5C06F2060B4BF6FF001030223626803EB4003032093FBF0F0091810467D
:201D0C0002290FDB1E290BDB3F28B9BF521C401C3F22101CE2603029B4BF10391F210DE0BB
:201D2C00E0600BE010F13F0FACBF401E6FF03F00E06011F1100FACBF10310021216180B2D4
:201D4C004FF47F42082330210090484601F032FD0096484604214FF40032112301F02AFDAF
:201D6C00208A04214FF4F80212230090484601F021FDBDE8F883C04600A00C4004800C4007
:201D8C003426002038482DE9FC4700680068014620208847354DDFF8D8A04FF002080F2075
:201DAC0000214FF4C072072345F82D0C41F61D5045F8290C5046CDF8008001F0FBFC2D4C8F
:201DCC00012644F8046C54F8040C8008FBD3DFF8A890B9F8000045F81D6C01281FD00320B1
:201DEC0045F8390C0027276020688008FCD23946504660220523009101F0DCFC26602068A2
:201E0C008008FCD345F8216C45F8397C0820C5F8FF0FC5F8F30F45F8396C464620E000275C
:201E2C00E760032045F8390C276020688008FCD2CDF80080504639466022052301F0BAFC9A
:201E4C00266020688008FCD3202045F8210C45F8397C0824C5F8FF4FC5F8F34F45F8396C5D
:201E6C00C9F80460BDE8FC87A001001039400C4000A00C4038600C40342600202DE9F04300
:201E8C00ADF1140D00F096FE384C4FF0030908274FF6FF780026254603F07AFD20BB0096CD
:201EAC0001A80DF106016A4603F0FAF8E0B9BDF80400102814D1208ABDF8061088420FD145
:201ECC0000980188884509D14088C00B08D3042005F12C02014602F0C9FE01E002F014F899
:201EEC00009808B103F09EFE608A41082CD320F001002379E178608253EA010224D073B97C
:201F0C00E079237A8DF8080005F13E018DF809300A680DF10A031A608988998001E08DF8B8
:201F2C000890607A8DF81000A37A8DF8113002A804F08CF838B1236B677023B11A6812B122
:201F4C00196838468847608A810806D320F002006082304601F004FA608AC1089CD320F0D0
:201F6C000400608203F030FD96E7C046AC1C002010B50B46002804BF40F6FF70C0F20F007D
:201F8C006ED041F25030C5F2000000689A0CC0F38361C0F38F2061D243F30722002A26D5CF
:201FAC005442B2F1FF3F4FEA640415DA400805D1490806BF0121081C4FF6FF70400802F1A5
:201FCC00010205D1490806BF0121081C4FF6FF70641E02F10102E9D15B0A08D3400805D17C
:201FEC00490806BF0121081C4FF6FF70521C002A34DD022A4FEA620302F001041DDB4FF61E
:20200C00FF7C400040F00100844507D2480040F001010F2992BF01200F216046400040F0BC
:20202C000100844507D2480040F001010F2992BF01200F2160465B1EE3D1002C0EDD400073
:20204C004FF6FF7240F00100824207D2480040F001010F2992BF01200F21101C40EA014005
:20206C0010BDFEE7F8B504F027F8314C256805F00C000C2855D0E8082ED22E480068EFF3CE
:20208C00118780F311882C4EB068002104F040F97169B269091A8A4238BF002187F31188A1
:2020AC0026480068884217D22548264A264D036812682868B3FBF2F22018891A04F024F948
:2020CC002868201804F01CF90120FEF7EBFD2868201804F011F925E0280922D21B48690960
:2020EC0039BF016821F00101016841F0010102460160D2F898004FF0805440F00300C2F8B9
:20210C009800D4F8B8018069014620208847D4F8B8010F4C806B2168804701202060206813
:20212C0000E030BF03F0CEFF01F0AEF8F8BDC046A8230020B87E000078010020B07E0000CA
:20214C00B47E0000BC7E0000A07E00008C2108402C2009402DE9F0430646ADF11C0D04F00F
:20216C00C7F803F0A9F84FF000090546CDF8009003F0BAFF30F0010002D00098A84202D124
:20218C006FF0040059E070684C4658B1B0F1FF3F05D001A902F096FE30B107464CE04FF0A7
:2021AC00FF3000E02046019004F09EF80199012701EB000800E001936868019904F090F873
:2021CC0000282ED003A802F067FCD8B9BDF8100002A902F047FC88B9B368BDF80800BDF8C9
:2021EC001210059A984748B1BDF81270F781BDF80800B081059B33614F4612E00599684696
:20220C0003F018F80198641CB0F1FF3FD4D00028D2D004F069F8B8EB000302D00198984209
:20222C00C9D2009905F1080003F004F924B1686804F052F8641EFAD1384607B0BDE8F083F3
:20224C002DE9F04FDFF8D4B009AF0E461D464FF0FF08ADF1140D3C88019000273078029296
:20226C00022805D17068008842F60211814238D0304601F08BFD039040B1401E18BF0A200A
:20228C0048D15946142001F1040903E05946282001F10209A04210DD05EB040A50450ADB39
:2022AC00F06802992A46201800F010FBDDF80C80A9F800A002E00D2700E00727B8F1FF0FFF
:2022CC000DD0DBF8080050B1066846B16419A0B20090039A029B019841F23011B0473846B9
:2022EC0018E000940198314601F05AFE594608310F68041C0DD167B1786850B1304601F040
:20230C0045FD009502467D68029B019841F23011A847E0B205B0BDE8F08FC046EC21002076
:20232C002DE9F04105462E480068EFF3118880F311882C4A505D411C0028515549D12A4CBC
:20234C00A900675C07F03F003F280C4401D0FFF7E7FF607800F03F003F2801D0FFF7E0FF57
:20236C00668837F07F0019D1F80911D24FF08054D4F8B801406901463046884704F5DC74D9
:20238C002068406B0146304688470128F8D120E0164850F82610012088471AE04FF08054A7
:2023AC00D4F8B801C069014630468847D4F8B801406A014630468847D4F8B801C06A014626
:2023CC003046884701210A4A0A48116001688908FCD388F31188284603F0A4F8BDE8F08183
:2023EC00B87E0000842600209C7B0000C026002028200860282008402D492DE9F041096846
:20240C00EFF3118881F311882A4B195C4A1E01291A5449D12849800045180E5C6F8836F04F
:20242C007F0019D1F00911D24FF08054D4F8B801806901463846884704F5DC742068406BBA
:20244C000146384688470228F8D120E01D4850F82710002088471AE04FF08054D4F8B80184
:20246C00006A014638468847D4F8B801806A014638468847D4F8B801006B014638468847CB
:20248C0001210E4A0E48116001688908FCD306F03F003F2801D0FFF7AFFF687800F03F0006
:2024AC003F2801D0FFF7A8FF88F31188BDE8F081B87E0000842600209C7B0000282008604A
:2024CC0028200840C0260020F8B50D46EEB2290824BF27494D40274BB400DFF89CC01959DE
:2024EC0000EA05020CEA020200F4E02C85EA0107BCF5E02F00EA070721EA0001C7F3006789
:20250C0042EA010201D1510E14D300F4E0210F4310D002F4E027B7F5A02707D0B7F5803797
:20252C0004BF22F4003242F4A02203E022F4803242F4C0221A51114CC10D04D3C5F38052D2
:20254C00A4F180018A55000E11D303F0C1FE290E03D201220021B24002E00122B240114646
:20256C005034236893431943216003F0ADFEF8BD006000A000100840007F077F80200240FB
:20258C002DE9F0410E46294990461C4606AF8C4672680878BB8851783F881278002502EB9A
:2025AC00012242F62321521A29D0521E052A18D9921F0CD0263A34D1072F30D8C7F107008C
:2025CC00984298BF83B2674407F1080121E0B84225DBC01B9842D8BF83B22380DCF80400E6
:2025EC000BE0F06803F056FC80B2B84217DBC01B9842D8BF83B22380F06839180AE0082F3B
:20260C000DD8C7F10800984298BF83B207EB0C010F31238040461A4600F058F903E007258B
:20262C0001E025800A252846BDE8F0811820002029482DE9F84FD0F80090EFF3118589F3E3
:20264C001188264CA068012103F062FE4FF0010A4FF00008064621686769A4F81CA02068D0
:20266C00A4F81E80791A321A8A42A6EB07062DD385F311884546EF195046394603F020FE01
:20268C00761B0546B542F6D9EFF3118B89F31188E08B012804D14046394603F011FE05463E
:2026AC00B5F1FF3F06D0A169AD1BA94238BF0D1CE91901E0A5697919284603F0FDFDA4F8FD
:2026CC0020A0A4F81C805D46276001E0A4F81C8085F31188BDE8F88FB87E000078010020A7
:2026EC002DE9F04F09AF1D468A46ADF1140D97F8049003903F880292084601F0B9FB0026A5
:20270C004FF0FF081F49019038B1401E18BF0A2034D1084600F1040B02E0084600F1020BA5
:20272C000490C7B9EC19022C13DA2CB9B9F1180F0FD0B9F1120F0CD0DAF80C0002992A4634
:20274C00381800F0C3F81CB1DDF80480ABF8004002E00D2600E00726B8F1FF0F0DD0049817
:20276C00806850B1046844B17F19B8B20090019A029B039841F21011A047304605B0BDE893
:20278C00F08FC04618240020F8B5264C2068EFF3118680F3118824491D4D0B680420B0FA08
:2027AC0080F043F00403281A1F3002780B60521C027086F311882068EFF3118380F31188F1
:2027CC000A680820B0FA80F042F008022D1AE87F0A60401CE87783F311880E20FFF7A0FD5A
:2027EC000C480068C0F38150032814BF0020012009490A4A088017683FB9094C4020206074
:20280C000123D36100204860F8BD0120F8BDC04648270020B43F00503426002004800C40DF
:20282C002C500C40B87E0000A8230020F0B520480127F84201D001F08DFB204D204F214E9F
:20284C00BD4206D203CD0478A4003459401CA047F6E71D48002800D08047164D164FBD420D
:20286C0002D210CDA047FAE7F0BD03251BE0416808300A1C2A400BD11A1C2A40AB4305D053
:20288C00046804300C600431043BF9D1131C05D0047801300C700131013BF9D1021C2A40F5
:2028AC0001D0A84304300368002BE0D17047C046FFFFFFFF00000000000000000486000092
:2028CC006C860000FC85000059C50110002A4AD05FEA000C8B071CD1830722D1102A08D3A0
:2028EC0070B4103A78C978C0103AFBD270BC103238D0042A2CD3082A05D30C2A24BF08C937
:20290C0008C008C908C008C908C092072AD0920F22E00B780370491C401C521E22D08B07D0
:20292C00F7D1C30714D18307D8D0121F12D308C903801B0C4380001D121FF8D20AE008C9BB
:20294C0003701B0A43701B0A83701B0AC370001D121FF4D2121D05D00B780370491C401CE1
:20296C00521EF9D1604670472DE9F04F09AF5FEA00089A46ADF1140DD7F80490029297F831
:20298C0000B0039137D0081C35D0101C33D0B9F1000F30D01948017800242AE0A00038F8F7
:2029AC0000604FF6FF7708EB0005B7421DD0AF78DFB10298039A514603F08AFA0190A0B134
:2029CC00780807D3CDF80090019A30465B46012100F07DFBA878800807D3CDF80090288879
:2029EC00019A02215B4600F072FB04480178641CE4B2A142D2DC05B0BDE8F08FAC1C0020E2
:202A0C0070B5054602F084FC41F2DC74C2F200046668034602F089FB22699B1B4FF47A7191
:202A2C005943090C801A48BF404240F6B83249198A4216D3062814DAA268E068824210D865
:202A4C00216871B1801A44F24022C0F20F024243900C00EB1240814212D90846C82811D39C
:202A6C0012E043F6AC71C5F200014868400828BF4FF4FA600DD209687D2001F0FF01484365
:202A8C00C82801D2C82070BDB0F57A6F88BF4FF47A6070BD2DE98841071C3CD041F278304A
:202AAC0043F6AC72C5F20000C5F2000200685168C0F3035CC0F3034E49081BD2D2F8008084
:202ACC004FEA08511CEB217C05D4BCF1100F04DB4FF00F0C01E04FF0000C4FEA08411EEB1F
:202AEC00217E05D4BEF1100F04DB4FF00F0E01E04FF0000E4EEA0C1E00F47F4100F0FF0214
:202B0C00222F41EA0E4142EA010208D300F080401043BDE8888143F62772C0F271021046D6
:202B2C00BDE888812DE9F843DFF878900F4604464FF0FF31484603F0D3FBDFF86C801C4827
:202B4C00002100E0491C67B117F82120FF2A08D00368934203D958F82220002AF2D00024DC
:202B6C0019E000202060012660600546A0600CE0636806FA01F048F8214018430B496060C6
:202B8C001268204601F0F0FF6D1C27B107EB85021178FF29ECD1484603F09EFB2046BDE8FC
:202BAC00F883C046C017002008170020007FC767081800202DE9F84302F064FC204C002531
:202BCC0065704FF6FF70E08201F008FE0121207004F1A80002F016F8022104F1CC0002F0E2
:202BEC0011F8042104F1F00002F00CF8042704F14A08102240462946A77000F0BBF904F177
:202C0C005A0910224846294600F0B4F904F12C063560E57107202572102160724246A57207
:202C2C00022002F009F8032010214A4602F004F838463246014601F0FFFFBDE8F883C0464F
:202C4C00AC1C002038B5042002F0BCFC1A4C022818BF03281FD103200090164800214FF0D2
:202C6C0040521C2300F0A6FD17480068EFF3118380F3118815480421B1FA81F1401AC17F62
:202C8C004A1E0129C27703D1206820F00400206083F3118838BD094D0A48094A2968036872
:202CAC006018B2FBF3F103F02FFB2868201803F027FB38BD00A00C40A8230020A47E000017
:202CCC00A0860100BC7E0000B87E00004827002010B51A481A490078086820F0030040F00D
:202CEC000100086001F05CFB02F00EF80021154C154821600068C06801460220884713499B
:202D0C00134A086820F0010008601068D4F8EC1FEFF3118480F311880E4B0F481A68042138
:202D2C00B1FA81F1401A42F00402C17F1A60491CC17784F311884FF0FF3010BD10180020EE
:202D4C000440034040100940A00100108C210840B87E0000A823002048270020F8B50546F9
:202D6C001E480068EFF3118780F311881C4C20684FF0805640F080002060D6F88C014068BB
:202D8C00014601208847D6F8B001006A014614208847286906F5C675810C14BF010C042164
:202DAC002868406A024601209047D6F88401006823210246002090472868C069014601202E
:202DCC008847206820F4C02040F480302060206840F00100206087F31188F8BDB87E000001
:202DEC0000200940F8B5001D84B214F0030002D0241A241DA4B202F01FFE01461948102CBD
:202E0C0047680160C8BF8768388800221646C30BDD0319D126B984420ADD3A46012617E020
:202E2C001388C3189BB29C42138011DC174618469FB1001B80B20428B4BF3C88385344F4E7
:202E4C0000443C803F1D08E080F40040002680B2C71938880028DAD10027084602F088FFB5
:202E6C003846F8BDA8220020B0B50446A768ADF1280D27BB0C20FFF7B5FF071C16D0684629
:202E8C0000212422082303F05BFA002306976A466168ADF810301448059303F009FA3860AC
:202EAC0038B902F05AFF384602F082F96FF0030018E0E06878602069B860A7600AE002F0E1
:202ECC00BBFD0546386803F017FA2069B860284602F04EFF3868616803F016FA386803F0F2
:202EEC000FFA00200AB0B0BD89600000FEB5FEF783FA1D4C4FF6FF75002602F03BFD0028CE
:202F0C00FBD1009601A80DF106016A4602F0B1F8D8B9BDF804000127102811D12088BDF861
:202F2C00061088420CD1009801888D4205D14088000905D301F01AFC02E003F047F80746F1
:202F4C00009810B10FB102F061FEA06803F018FA0028D2D1A06803F0A7F9074600F038FB18
:202F6C00384602F047FEF0E71C180020002213460A46194671B510F0030F0BD0002A82BFBD
:202F8C0000F8011BB2F1010210F0030FF6D1002A08BF71BD11F0FF0141EA0121042A18D30C
:202FAC0041EA0141082A0FD30E46102A08D30C460D46B2F10F0312F00F0272C0103BFCD85D
:202FCC0012F0080F18BF42C012F0040F18BF40F8041B12F0020F18BF20F8021B12F0010F7F
:202FEC0018BF017071BDFEE770B50646F088F5680628A5F108052CDAB088062829DA02F0F2
:20300C001BFD154CF28891000C3401EBC20161184968E1B102F0ACFE30792870B079687097
:20302C00307AA870F188880000EBC1002018F1684068083002F0FEF8F188880000EBC1000F
:20304C0024186068406803F047F9002070BD02F08FFE6FF0020070BDD022002041F2A00145
:20306C0008B5C5F20001D1F878020B68020F03F0FF03802B28BF002301F071FC4FF0FF3191
:20308C0088B1401E05D0401E1FD1F2B90A3358B208BD101C02D0801E02D016E00A2008BD60
:2030AC00143358B208BD1046401E0DD0801E04D0001F04D0401E04D007E0142008BD1520B1
:2030CC0008BD163358B208BD0A21084608BD2DE9F0410E46984615460746ADF1180D03A939
:2030EC0002F07CFB0246059222B3002000900C9CBDF80C000DF1120329460190FF200290CA
:20310C003846A047041C10D16889ADF81000700804D3384604A902F001FD04E03846424643
:20312C0004A903F014F8041C05D004A81B2102F013FC00E01524204606B0BDE8F08100B5F9
:20314C00401EADF1140D08D0401F2ED140F215306946FEF703FD684625E04FF4417002A9A3
:20316C00FEF7FCFC00218DF804109DF809308DF803109DF80A208DF801309DF808008DF89F
:20318C0002209DF80B108DF800009DF80D308DF805109DF80C208DF8073068468DF806208A
:2031AC00FCF7A0FF02A800F0A3FD05B000BD704738B50079184CA0B902F03EFC21780029FD
:2031CC0004BF6FF00704051C13D0491EC9B2217029B902F0CDFD606801F070FB18E005463A
:2031EC0013E002F029FC05462078FF2805D16FF00604284602F0BCFD0BE0401CC0B2012875
:20320C00207002D1606801F074FB284602F0B0FD0024204638BDC046E0260020B0B5ADF15C
:20322C00400D03F0B1F8044600213C220823684603F036F811484168069181680068049058
:20324C001048001D0068002205900D480891694603F022F8071C0DD002F0EEFB0546384680
:20326C0000F0E0FD30B1284602F082FD204603F073F801E000F0F8FB10B0B0BDE07A0000A6
:20328C00555F00009822002045F2280080B5C4F2090007686FB343F6AC70C5F200008268BA
:2032AC0002EA5201C90E24D24168890821D20021C4F20901D1F800C000681CF0050F4FEA9E
:2032CC00104000F0F00000F5E0700CD1B84210D2100F38BF4CF0010CD00E38BF4CF0040C34
:2032EC00C1F800C080BDB84284BF2CF0050CC1F800C080BDB0B5174C0746F8B2A77102F023
:20330C00ABFDC5B26069002D0CBF134A134A4FF4E0213A4301F028FC21465FB13F1F17D174
:20332C001DB98F78A7B9012002E0CF7887B10020C87007E08F7815B957B9012001E03FB1AC
:20334C0000208870C8710222891D042000F042FFB0BDC04618180020000006800000058023
:20336C00FEB5194C0546208C218B81420CDC618B814209DBA08B618C884205D1E08BA18CF8
:20338C00884208BF18271DD0052001F0C9F8278B638BADF80270A28BADF80430E18BADF8BF
:2033AC0006200646ADF80810E08AADF80000684602F058FE071C05D1A57304F1F000314660
:2033CC0001F0F0F93846FEBDAC1C00202DE9F041054615F8017B90460E461CE0B8F1000FED
:2033EC0005F101050BD0FF2C09D8022015F8011B401E41EA0424F9D101E0042C02D315F825
:20340C00011B00E0394630462246FFF7B3FDA61901E006F8010B15F8010B8742F9D115F83E
:20342C00014B002CE9D115F8010B2C7800022418D4D1BDE8F08170472DE9F8430C46804678
:20344C0020781D46914608AF022805D16068008842F60211814205D0204600F071FC0A20B7
:20346C00BDE8F883388821460090404600F098FD06460A4807686EB967B1786850B12046CB
:20348C0000F05EFC00957C6802464FF489514B464046A0473046BDE8F883C0462C230020EF
:2034AC00F0B50F46174914460546ADF1140D11226846FFF70BFA00210F222046FFF75AFD61
:2034CC000F263A2017E00F2E03DA761E04F8010BF6B2297809111DF8011004F8011B15F8F6
:2034EC00011B01F00F011DF80110B61E7F1EF6B2FFB204F8011B1FB1042EE4DA06B1207094
:20350C0005B0F0BD307C00002DE9FE43154D0C4660B1401E23D105F10C00D0F80090A0F138
:20352C00080600F104080127142004E0AE1C0027282006F12208A04211DB114640462246C7
:20354C00FFF7C4F9348057B12878074F05F14C0241460623009048460197FFF705FABDE8B6
:20356C00FE83C046EC2100207539000010B5012002F028F8012829D04AF20000342101220F
:20358C000023C4F20C0000F079FD002808BF00201DD08020C1F200000068804701F0B8FEAF
:2035AC0041F2DC7344F24022C2F20003C0F20F029C681968D860041BA1EB91016243120CAE
:2035CC008A4224BF1A60012001D21960012010BD0346197A03F109000246A1B1491E08D0A9
:2035EC00491E24D0491E1FD0491E1AD0481E15D070471088B0F5895003D0103819D100F0B0
:20360C0006B900F048B8018841F21012891A03D020390ED102F08CB801F0CCBC108801F02B
:20362C0009BC104602F0ECB9587AFFF788BD01F0AFBE704798B541F23403C4F209031868B1
:20364C000004070C26D001F070FD41F60002C2F2000292F90710814205DD10F1800FB8BFB6
:20366C006FF07F00D0719188B94212D81468D3F8D40F001B801C1F2888BF1F207F1A400892
:20368C00C7404FF6FF70C919884238BF011C918098BD978098BD704738B502F019FE154CC3
:2036AC000546A01D008840B9FFF76EF80446102000F0DAF8012C0DD017E0FFF757FF60B17F
:2036CC000020E080FFF760F80446102000F0CCF8012C0AD1FEF756FB07E0303405212046BD
:2036EC0002F012FE204602F00BFE284602F0ECFD38BDC046A8230020F8B5054605F1280214
:20370C000CCA0846002102F0E1FA05F1300292E8C00036184FEA164447EB0107380404438B
:20372C0001F0F6FD211AB1F1004F08D8011B091DC90F05D1001DA04288BF041C00E0041D36
:20374C0004480068426A214601209047383585E8C000F8BD8C0100101549096820280ADCB5
:20376C00202819D00B380FD00D380FD0001F0FD0C01E0FD01AE0243810D0401F10D0401E38
:20378C0010D0401E10D011E04868704788687047C8687047086970474869704788697047E1
:2037AC00086A7047486A7047886A704700207047F00100202DE9F041984600EB410016462D
:2037CC00B8F1100F06AF00F5007404D3A8F1100800F50174360C3D8802F06EFC05FA08F5A6
:2037EC0045EA06450021002808BF012148F20002C4F20C02106810B910680028FAD02560E1
:20380C000120106009B102F05DFCBDE8F0817047B0B5044602F06CFD00F004FB054602F003
:20382C000BF90146A2880F480023243030F80C7F5FB902804560A381A268826068682061E6
:20384C000024084602F094FA09E0974208BF6FF00204F6D05B1C062BE8D300F005F92046FF
:20386C00B0BDC046AC220020F8B507461248134C0668301902F084FD0025A419C0B920463D
:20388C0002F07AFD0646B068074206D0F268316938469047C0B2012806D0304602F068FDA9
:2038AC000646B442EFD103E002480068804702252846F8BDAC7E0000A87E0000A823002019
:2038CC002DE9FC41114C0F461146E26830B1401E1AD1D4F81080A51DA61C02E09046251D32
:2038EC00661C022F10DA7FB130463A46FEF7EEFF2F8004F11402314607232078044F009041
:20390C0040460197FFF730F8BDE8FC8124230020213900002DE9F84308AFBC883E8808461C
:20392C00984691460D4600F00BFA0E4903460888002723B15B1E18BF0A2011D14888B04235
:20394C000CDB801BA042D8BF84B2A8F80040E868224631184846FEF7B9FF00E00727384682
:20396C00BDE8F883282300202DE9F84308AFBC883E880846984691460D4600F007FA0E4900
:20398C0003460888002723B15B1E18BF0A2011D14888B0420CDB801BA042D8BF84B2A8F858
:2039AC000040E868224631184846FEF78FFF00E007273846BDE8F883EE210020B0B504461F
:2039CC0002F092FB30F0010008BF6FF004041BD002F08EFC054602F02FF80C4A062132F89B
:2039EC000C7F6FB1A388BB4208D1526812680021954208BF0121A160002403E0491EEED1CC
:203A0C004FF0FF3402F0B4F92046B0BDD02200202DE9F84308AFBC883E880846984691468F
:203A2C000D4600F025FA0E4903460888002723B15B1E18BF0A2011D14888B0420CDB801B4D
:203A4C00A042D8BF84B2A8F80040E868224631184846FEF73BFF00E007273846BDE8F88361
:203A6C001A24002000BF704708B5FFF7FBFFFEE738B50D4C0546A06820B10C48B0F1FF3F37
:203A8C0000D080470A4800688047606810B1014628468847206800B1804706480068804778
:203AAC00FFF7E2FF38BDC046A8260020FFFFFFFFD8260020DC2600202DE9F84F0AAFBC88A4
:203ACC0080469A46914604F1120080B201F0D6FE0D4DD5F804B0061C14D086F80880A6F8DA
:203AEC00099086F80DA0396806F10E002246FEF7EDFEA6F80B405846314602F0C9FB2868C4
:203B0C0002F0EAFBBDE8F88F20180020DCB5044602F0EEFB01F0D0FB064602F0E5FA30F08F
:203B2C00010014BF002E6FF0040017D0606858B1B0F1FF3F05D0694601F0C4F930B107461D
:203B4C000BE04FF0FF3000E0002000907068009902F0C6FB002700B901273846DCBD70B508
:203B6C0004464AF200060D466008ADF1080DC4F20C0607D3A8B20021009001220B463046A8
:203B8C00FFF718FEA00807D3A8B200900021022201233046FFF70EFEE00807D3A8B2009014
:203BAC0000210C2202233046FFF704FE02B070BDF8B5124C267CA578182001F03FFE071CE5
:203BCC0019D00421002202F06FF9304601F01FFD38727D720020B87204F14A06FE6004F151
:203BEC005A033B6104F12C027A6101F037FE024A394600F00DFDF8BD8B610000AC1C00204E
:203C0C002DE9F04104461148103090F8008016460D46102001F012FE071C12D00421072233
:203C2C0002F042F9404601F0F2FC38727C72BD72FE6001F013FE044A394600F0E9FCBDE878
:203C4C00F0810420BDE8F081B5610000AC1C0020B0B5054602F04CFB044602F045FA30F02B
:203C6C00010008BF6FF0040416D001F0E5FE01460A48002230F80C7F4FB143681B689C42D5
:203C8C0004BFAA80002404D0521C062AF2D36FF00404084602F06CF82046B0BDD0220020E0
:203CAC00F8B5044602F024FB00F0BCF8071C19D001F0C2FE84460D480021243030F80C6F58
:203CCC006EB94FF6F87202804760A180002585607868A060604602F04BF82846F8BD491C6B
:203CEC000629EBD3FFF7C0FEF8BDC046AC220020114990B504461122ADF1140D6846FEF7F0
:203D0C00E5FD0E48A41D30210627017078214170801C14F8011D09111DF80110237800F8CC
:203D2C00011B03F00F011DF801107F1E00F8011BEFD105B090BDC046167E0000F0170020FE
:203D4C0070B542F6021200E010380478022C03D1416809888A42F7D0102C11D10A4E456850
:203D6C002246A6F11001284601F016FD002808BF002008D022462846314601F00DFD08B1CD
:203D8C00FF2070BD012070BD407D000070B542F6021200E010380478022C03D1416809886F
:203DAC008A42F7D0102C11D10A4E45682246A6F11001284601F0F0FC002808BF002008D0FF
:203DCC0022462846314601F0E7FC08B1FF2070BD012070BDBC7C000010B5114CF03C607805
:203DEC0006281CD1208B062819DBB0F5486F16DA608B062813DBB0F5486F10DAA08BB0F566
:203E0C00FA7F0CDAE08B0A2809DBB0F5486F06DA0120FFF7A5FA04F1CC0002F0D3F910BD78
:203E2C009C1D00202DE9F843804601F005FE0F4C03250026814654F80C7F5FB93046C4F801
:203E4C0000800146A6600A4602F01EFA606018B9FFF70AFE474501D1264601E06D1EEAD1AF
:203E6C00484601F085FF3046BDE8F883AC22002070B542F6021200E010380478022C03D198
:203E8C00416809888A42F7D0102C11D10A4E45682246A6F11001284601F07EFC002808BF4E
:203EAC00002008D022462846314601F075FC08B1FF2070BD012070BDE87C00000F4838B554
:203ECC0060300C4D0C4A016891FAA1F30121B3FA83F301FA03F42C60094811600068984248
:203EEC0007D9084850F8230018B102680AB1D9B2904738BDE020026080E200E08020024050
:203F0C00081800200817002010B50178A23902D02E391AD010BD4179132918D100890C4C4D
:203F2C0001280AD12046F038817B022905D1F03002F048F901F0E6FD10BD052000F0F0FAF3
:203F4C000146204600F02EFC10BDFDF741F910BD9C1D0020F8B506460F4D104F738800241A
:203F6C0017E0A00000EBC400321851689068D26852B9AF420BD00A7855F822200346491C24
:203F8C0008461946904701E0FEF7A0FC7388641CA4B2A342E5DCF8BDFC85000004860000E8
:203FAC00F8B506AF3F880D460646E7B9022B18D15078147804EB002434F003000FD1E968B8
:203FCC000968304601F0A8FF844208BF00200BD0E96809683046224601F0EFF9F8BD802000
:203FEC00F8BD0D20F8BD0B20F8BD70472DE9F04104461E4690460D46142001F01FFC071C06
:20400C0013D03246032101F04FFF3C81002038744046FD6001F0FBFA787401F01FFC044A3E
:20402C00394600F0F5FABDE8F0810420BDE8F081935A000080B58788ADF1300DCFB1090C25
:20404C00049342EA01420E9F0392119B05970F9A089313990692109F0A9180680797064B1B
:20406C00149A129F0B92196809970B460822694698470CB080BDC046CC7E000070B51E463C
:20408C000C181546102E02D3103EA41C2D0C02F013F80021002808BF012148F20002C4F21A
:2040AC000C02106810B910680028FAD024880120106009B102F006F805EA0400304180B2BE
:2040CC0070BDFEE70E48B0B5057CC48A0E2001F0B5FB071C11D004210A2201F0E5FE2846D2
:2040EC0001F095FA38727C811320387301F0B6FB044A394600F08CFAB0BD0420B0BDC046C6
:20410C00AC1C0020AF6100000C4885460C4885446F4607208743BD460A486F4607600A48F6
:20412C00002803D07946491D8E460047FEF77EFB01F0C0FD02F0A4F8FEE7C046E43F002060
:20414C000004000050270020196100002DE9F04104460E48057890460E46102001F06EFB26
:20416C00071C10D03246042101F09EFE284601F04EFA3872FC6001F071FB3946424600F005
:20418C0047FABDE8F0810420BDE8F081BC1C002038B50F4C2C34A4F12C01086820F001009F
:2041AC00086054F82C1C4FF0805541F0800144F82C1C01202060D5F88C1122684968884798
:2041CC00D5F8B001006A014614208847206838BD002009402DE9F84314460646884604F101
:2041EC000C0080B201F04AFB0A4DD5F80490071C0DD03E7207F1090041462246FEF766FB91
:20420C004846394602F044F8286802F065F8BDE8F883C046201800200D48F8B5C088002888
:20422C0008BF002013D00B480768002F0DDD0A48046800250020294601F096FE0646F06832
:20424C00A0476D1C7F1EB060F4D14FF0FF30F8BDF0010020C47E0000C87E000098B504461D
:20426C002420FEF7BFFD071C14D000212422082302F05EF82079012804BF01203876A06800
:20428C003946002202F000F8E060384600F090FFE06810B96FF0030098BD002098BDD0B588
:2042AC0004463C20FEF79EFD071C14D000213C22082301F0F5FF207AB86160893862E068A8
:2042CC00386160683946002201F0E6FF0646384600F06EFF16B96FF00300D0BD0020D0BD68
:2042EC000E4838B59938057800F078FF094CE06070B101F063FA00F071FF206140B101F0F3
:20430C005DFA054A04F11400072100F027F9257038BDC04624230020247D0000B518002025
:20432C0000B500213C220823ADF13C0D684601F0B7FF094800F5B27107914FF40271089186
:20434C0003210691054900236A4600F58A7001F093FF0FB000BDC046AC1C0020891E0000F2
:20436C00F8B506460C48006844880579102001F065FA071C0DD00221152201F05FFE3C814D
:20438C00BD72FE6001F06AFA044A394600F040F9F8BD0420F8BDC046281800202D600000B8
:2043AC0010B54FF08054D4F8900181680120884741F21401C4F209010868800902D208689E
:2043CC008009FCD3D4F8A00101684020884704F5D07420688168402088471128F9D110BDC7
:2043EC0000B500213C220823ADF13C0D684601F057FF094800F5BA7107914FF448710891D8
:20440C0001210691054900236A4600F5927001F033FF0FB000BDC04618180020F92E0000A3
:20442C00012810B515D1012001F0CCF8012812D001F01CFB094C0120E0803034204601F022
:20444C005BFF0521204601F05FFF204601F058FF01E000F059FC002010BDC046A823002069
:20446C000C4810B50068EFF3118480F311880B48C088012809D10848342101220023FFF7AD
:20448C00FDFD002808BF002000D0012084F3118810BDC046B87E000000A00C40A823002026
:2044AC00B0B504460D48026840680F4600211200401841EB020104F128020CCAFDF79EF84C
:2044CC0005460B4647B104F1280003C82A4601F0FDFB303484E803002846B0BD08200940DC
:2044EC002DE9F0410446984616460D460E2001F0A5F9071C10D0812038700123FB70BC80BE
:20450C003D817E81A7F80C8001F0A8F9069A394600F07EF8BDE8F0810420BDE8F081704789
:20452C003EB505460020ADF804000A2001F086F9041C0DD00421312201F0B6FC258101F01F
:20454C008DF901A90223044A0091214600F07EF8BDF804003EBDC04697610000F8B50446A5
:20456C0016460D46142001F069F9071C0FD00421022201F063FDBC60BD811020B8733E6109
:20458C0001F06CF9034A394600F042F8F8BD0420F8BDC0460360000070B50446606810F095
:2045AC007F4F18BF6FF0020011D101F045FA084D0646287828B1686800F080F9606800F0CC
:2045CC0098F960686860304601F0D2FB002070BDE0260020B0B504460D46102001F02EF9BD
:2045EC00071C10D02146062201F028FD0020388115247C81054AFA6001F030F939462A4646
:20460C0000F006F8B0BD0420B0BDC046B51800201CB51446CA78012A02D18A880A4B1A8043
:20462C0000F060FE30B9002000906946204601F083F918B101F0D6F9044603E000984478FB
:20464C0001F008FB20461CBDB426002038B51C46154600F047FEB0B900200090694628460C
:20466C0001F06AF978B90099487848B90846C1798C4205D10146049889682246FEF726F9D3
:20468C00009801F0E7FA38BD0C4910B50968EFF3118481F311880A49B0FA80F2891ACA7F45
:2046AC00531E012ACB7703D1034A11688143116084F3118810BDC046A8230020B87E00003D
:2046CC0048270020F8B5044616460D46142001F0B5F8071C0ED00121142201F0AFFC3C7224
:2046EC00FD603E820420B87401F0B8F8024A3946FFF78EFFF8BDC0461160000010B5044617
:20470C000B4802680023D90750080143D007801A4FF47A729941FCF771FF002908BFB0F1C3
:20472C00004F28BF6FF000406060002010BDC046BC7E000080B51746094A12688A4204D9A3
:20474C00084A52F82120904201D0022080BD002307B10123044A0020803A535480BDC0465D
:20476C0008180020081700208020024038B50C4C103C206990B161780830491C6170FFF734
:20478C00EFFD0546162D09D0042D07D020694088002100F0F7FC284600F088FE38BDC0467E
:2047AC002818002038B50D46044601F011FD10B1204601F0A1FD084800684FF47A71B1FBBC
:2047CC00F0F080B205FB00F1204601F09DFD204601F096FD38BDC046BC7E00001CB50020C9
:2047EC008DF80400082001F029F8041C0CD00121122201F023FC01F031F801A90123044A52
:20480C0000912146FFF722FF9DF804001CBDC0463B6000000C4938B50968EFF3118581F3CB
:20482C001188074B07491A68B0FA80F4091B1043CA7F1860521CCA7785F3118838BDC0469E
:20484C00A823002048270020B87E000010B50C4600F05EFD211AB1F1004F08D8011B091DEC
:20486C00C90F05D1001DA04288BF041C00E0041D03480068406A214602460120904710BD46
:20488C008C01001080B58788ADF1300D8FB1090C0E9F049342EA01420597074B0F9903921D
:2048AC008068109F06910422196807970B46694698470CB080BDC046CC7E000038B5054619
:2048CC00012411E0C0F11F0004FA00F1052881EA050504DB401FC0B2FDF78EFD04E004FA44
:2048EC0000F0C0B2FFF7D0FEB5FA85F02028E9D138BD38B50546012411E0C0F11F0004FA4F
:20490C0000F1052881EA050504DB401FC0B2FDF707FD04E004FA00F0C0B2FFF77BFFB5FAED
:20492C0085F02028E9D138BD98B50446A06858B1B0F1FF3F05D0694600F0C4FA30B1074618
:20494C000BE04FF0FF3000E0002000906068009901F0C6FC002700B90127384698BD41F240
:20496C001830C5F2000001684BF69A10C1F30F31884208BF00200BD02430884208BF012052
:20498C0006D04BF6203088420CBF02204FF0FF30704700000B4838B59938057800F034FC1A
:2049AC00064CE06040B100F009FF054A04F14C000621FFF7D3FD257038BDC046EC21002036
:2049CC00A07C0000B5180020F8B5044616460D46102000F033FF071C0CD00421362201F05D
:2049EC0063FA3C817D81FE6000F038FF024A3946FFF70EFEF8BDC0467F61000070B5054636
:204A0C000E460C2000F01AFF041C0CD00421302201F04AFA2581668100F020FF034A214609
:204A2C00FFF7F6FD70BD042070BDC046A361000038B50446A1686068086001F091FB48B113
:204A4C00002506490095064AA368097800F082FA284638BD6FF0030038BDC046A37D000019
:204A6C00714E0000024680B5062A0CDA094F900000EBC20007F13002175A13181FB14FF668
:204A8C00F870B84202D14FF0FF3080BD18880880002080BDAC22002010B5044601F028FC93
:204AAC0000F00AFC002808BF6FF004000DD0083000F00DFBA06038B110F8081CA18010F857
:204ACC00070CE080002010BD022010BD10B5044600212C220823ADF1300D684601F010FB4D
:204AEC00E0200890A168606800236A4601F0C0FB002818BF002001D1FEF7B6FF0CB010BD9E
:204B0C0010B5044600212C220823ADF1300D684601F0F6FAE068A1680890606800236A46F2
:204B2C0001F0A6FB002818BF002001D1FEF79CFF0CB010BD10B5044600F07EFF094B0022DB
:204B4C00014633F80C0F30B1A04208BF94B203D0521C062AF5D3FF24084601F009F92046E9
:204B6C0010BDC046D02200200B4B10B51B6802F0FF04A34206D9074C02F0FF0354F8233007
:204B8C00984201D0022010BD08461146FDF79CFC002010BD081700200818002010B50446C3
:204BAC006078162804D16088082100F0EBFA30B1217904F1080000F0CFFE012010BD0120D4
:204BCC0000F074FC01480460002010BD28180020010446F244020B0CC4F20C02C0F3074116
:204BEC0042F8083C012042F8041C40F68401C4F28C311060086810B908680028FAD0002057
:204C0C001060704730B50C46054624220823ADF1240D0021684601F093FB00222846069427
:204C2C00044905926B46ADF8102001F085FB09B030BDC046A95C0000F8B5044616460D4636
:204C4C00102000F0FBFD071C0CD00521012201F02BF93C727D72FE6000F000FE024A39461F
:204C6C00FFF7D6FCF8BDC046C1610000F8B5044616460D46102000F0E1FD071C0CD00521BA
:204C8C00022201F011F93C727D72FE6000F0E6FD024A3946FFF7BCFCF8BDC046C7610000BF
:204CAC0038B505460C2000F0C9FD041C0DD02946002201F0C3F94FF0FF30A06000F0CEFD6A
:204CCC00034A2146FFF7A4FC38BD042038BDC0460951000070B506460A48183805780A2056
:204CEC0000F0ACFD041C0CD03146102201F0A6F9284600F08CFC207200F0B0FD214600F06E
:204D0C00F1FA70BD3418002008B503200021FEF726FF012000F056FC20B18020C1F2000061
:204D2C000068804700F0F4FA41F2DC73C2F20003586000F0FAF9186108BDF8B504461646F5
:204D4C000D460C2000F07AFD071C0DD02A46042101F0AAF83C810520B87200F07FFD394642
:204D6C003246FFF755FCF8BD0420F8BDF8B5044616460D46102000F061FD071C0DD02A4646
:204D8C00042101F091F8BC600020F86000F066FD39463246FFF73CFCF8BD0420F8BD107846
:204DAC00802811D1508840F27F6181420CD190883F21B1EBA02F07D1C0F3C211042903D191
:204DCC0000F07F00834201D000207047012070471078802811D1508840F27F6181420CD177
:204DEC0090883F21B1EBA02F07D1C0F3C211032903D100F07F00834201D000207047012069
:204E0C0070471078802811D1508840F27F6181420CD190883F21B1EBA02F07D1C0F3C211F2
:204E2C00052903D100F07F00834201D0002070470120704738B50546102000F0FFFC041C3D
:204E4C000DD00121132201F0F9F825810020A072E06000F003FD024A2146FFF7D9FB38BDB6
:204E6C001F60000010B5401E0C460DD0401E09D0801E05D0001F01D0FEF7F6FD052004E0CA
:204E8C00002002E0042000E00220226821469047002010BD38B5094CE8210020218040F6E7
:204EAC00CC22A4F8B40B04F1E8010A80044D6961FDF798FFA8616C6138BDC0460802002094
:204ECC00982200200A4A10B512680C464FF47A710023A1FB0001FCF791FB002908BFB0F109
:204EEC00004F2EBF6FF002002060002010BDC046BC7E000038B50A4D0C46114628B1401E38
:204F0C000CD12846051DE81E01E02846851C022C04DA1CB12246FDF7D9FC2C8038BDC04671
:204F2C001824002010B501F01FFA01F02DFA032001F09AF906481030006830B1034C2046EF
:204F4C0000F0A2FF204600F09CFF10BD8D5E0000A401002098B517460A46011C14BF002F2D
:204F6C00032009D0064C8A600448CF6022680B61801801F075F9002098BDC046A82300201F
:204F8C00A87E0000094838B50068EFF3118580F31188074CA41D2088012803D1FEF7E6FA27
:204FAC000020208085F3118838BDC046B87E0000A823002038B50546094CA978681DFC3C8D
:204FCC0004F17C02FEF76CFA2979A06919B1491E05D10F2100E00A216A79FFF7ABFB38BD96
:204FEC0014190020014610B51C20ADF1280D00900D980190064802AA01F02EF9041C04D071
:20500C0002A900F00BFD204600E000200AB010BDC47D000090B58788ADF1340D77B1084C04
:20502C00090C42EA0142109F04938068039221460968059702220B46694698470DB090BD9C
:20504C00CC7E000020280FD341F29830C5F2000001680803820D920500F47C1001F00F0103
:20506C00104340EA0130704748F20000C4F23F0070477FB50646082014460D46ADF80000DF
:20508C000920ADF80200684600F075FBBDF804103180BDF8061029800299216000907FBD50
:2050AC007FB50646082014460D46ADF800000920ADF80200684600F05EFBBDF804103180A9
:2050CC00BDF8061029800299216000907FBD98B5044600F0B1FC2168002908BF002709D0BB
:2050EC000F4657F80C2C2260002347F80C3CFF2401F8024C00F03CFE384698BD1078911DFF
:20510C00802810D1508840F27F6383420BD19088032818BF042806D1097831F0100014BFCB
:20512C001129012000D00020704745F2280041F20C31C4F20900C5F20001826891F9001097
:20514C000068A0F540704143091142F31000401A803000127047000010B50C2000F06EFB96
:20516C00041C0BD00121042200F068FF0448001DA06000F073FB214600F0B4F810BDC046EC
:20518C003418002038B5054608480C3800780C4600F03DFAC2B204482946234600904FF66D
:2051AC001840FFF79DF938BD4D6100002818002010B5044600F040FC074934F8042C6FF3B3
:2051CC00DF3224F8042C4A680860241F944238BF4C6000F0CDFD10BDA82200200EB5082034
:2051EC00ADF800000420ADF802000648007880000190684600F0BFFA002814BF0020029850
:20520C000EBDC046AC1C00200EB50820ADF800000420ADF8020006480078800001906846E9
:20522C0000F0A9FA002814BF002002980EBDC046AC1C002038B50C46054600F0FDFB0021CE
:20524C0044F80C1C296811B92C6006E0114651F80C2C002AFAD141F80C4C00F089FD38BD48
:20526C0010B5044660680C3080B2FDF7BBFD50B1A18800230181FF22036000F10C018272EC
:20528C001846A16010BD6FF0030010BD38B50546FFF702FC041C0DD1A8886946FFF7E2FBCB
:2052AC0028B1A86800F0CAFC6FF0050038BDBDF80000A880204638BD38B5054600F0BCFBD3
:2052CC00074C0322014654F80C0F18B1A84202D0521EF8D10024084600F04AFD204638BDDA
:2052EC00AC22002000B5ADF1140DADF8040003910822ADF80020ADF802201020ADF8060072
:20530C0002208DF80800684600F035FA05B000BD38B500F0D1FE0021002808BF012142F281
:20532C000800C4F20900046845685FEA010E01D000F0C8FE200440EA154038BD10B50C46F3
:20534C00ADF1180D02900821ADF8001019216846ADF802104FF0FF31019100F00CFA0499DB
:20536C00216006B010BD80B5107802AF80280DD1508840F27F61814208D19088834205D1F0
:20538C0038789179884208BF012000D0002080BD80B50246178841F210103F1A07D0103F7A
:2053AC000AD110795188521DFEF78AFA80BD10795188521DFFF79EFD80BD70B515460E460C
:2053CC00044600F09BF848B94FF6FF70314600F095F8002808BF112002D0048085700020C0
:2053EC0070BD70B141F27430C5F2000001684FF6FC4CC0F2FC0C01F07C420CEA010010431C
:20540C0070470020C6F6880070470000084A0021032002F1140343F80C1F401E9960FAD186
:20542C0044320620401E22F80C1BFBD100F01EBC9822002098B50F46044600F0FDFA57B1DA
:20544C003A4600E00A4652F80C1C0029FAD1216842F80C1C276000F08BFC98BD0EB5082001
:20546C00ADF800000120ADF80200684600F083F90349BDF804008880029888600EBDC04639
:20548C00181800200EB50820ADF800000120ADF80200684600F06FF90349BDF804000882C3
:2054AC00029888620EBDC046AC1C002010B5084C216861B120B101F10800097900F04CFA6C
:2054CC00103C206900F0A2FB00202061607010BD2818002010B50C464FF4E02144F00042EF
:2054EC00FFF742FB0448211C02D0091F02D1243000F006FF10BDC046CC1800200346084660
:20550C000749097849B1021F084632F8041F8B4208BF101C02D0401EF7D100207047C04663
:20552C00AC1C002010B50E284FF0010403D00649085C28B105E0204600F044F8012800D069
:20554C000024204610BDC0468426002008B5283090E80C0005A003C8FCF750F8002908BFE4
:20556C00B0F1FF3F88BF4FF0FF3008BD00000000907E000080B58788ADF1300D4FB1064B48
:20558C00090C42EA014280681B6803926946002298470CB080BDC046CC7E000090B587882E
:2055AC00ADF1340D57B1064C090C42EA0142806804932468039269460122A0470DB090BDBF
:2055CC00CC7E000001464AF200000429C4F20C0005D134214FF0C0421D23FEF74FBD342101
:2055EC004FF080521C23FEF749BD38B505460A2000F024F9041C09D00121152200F01EFD88
:20560C00258100F02BF92146FFF76CFE38BD0EB5ADF806005021ADF8001068460021ADF800
:20562C00021000F0A8F8002814BFFF209DF808000EBD000008B5FFF77DFAFF2808BF002002
:20564C0006D0044B810001EBC00103F13000401808BDC046AC2200200EB50820ADF8000026
:20566C002020ADF802001020ADF80400684600F082F8002814BF002002980EBD074808B5BA
:20568C00FCF79AF9FFF7C2FEFDF7C8FDFEF748FEFEF7A6FE00F0DCFD002008BDA47D000066
:2056AC00074808B51030006828B1034800F0ECFB024800F0E6FB08BDC9580000F15C0000E1
:2056CC00A4010020074810B51030006830B1044C204600F0D9FB204600F0D3FB10BDC046EB
:2056EC0001050000A4010020074808B500F0ACFDFFF7D6FF00F0A4FD00F09EFD00F098FDC2
:20570C0000F092FD08BDC046314F000010B50648064900684C684068014601208847A0694D
:20572C0001466069884710BD8C010010E401002038B50446207950B9054D0021282228460B
:20574C00FDF718FC611D27222846FDF7BFF838BD1419002050B141F27030C5F20000006820
:20576C00020400F47C01100C0843704747F28A60C0F26800704710B504462088FFF75AFF8E
:20578C0038B1816811B12046884710BD6FF0010010BD4FF0FF3010BD10B5002A08BF002029
:2057AC000AD0401E491E11F8014F10F8013F9C4201D1521EF7D1181B10BD00000146064820
:2057CC00007840B14FF6FF73091F002221F8043F401E8A70FAD17047AC1C00201CB5064A14
:2057EC0014683CB1024600911B2301204FF6FF71A0471CBD00201CBDB826002060B141F24C
:20580C005031C5F2000108680968C0F3870001F0030140EA01207047D820704720280BD35C
:20582C0041F29830C5F200000068C10C01F44071C0F3845008437047002070470EB501901B
:20584C000821ADF8001068460221ADF80210FFF792FF002814BF002002980EBD0EB50820E4
:20586C00ADF800001A20ADF802006846FFF783FF002814BFFF20BDF804000EBD0EB501907E
:20588C000821ADF8001068460421ADF80210FFF772FF002814BF002002980EBD08B5428826
:2058AC00292A28BF6FF0010004D203490C3151F82210884708BDC046EC7A000010B5064C51
:2058CC00206900F0ADFC0146A06800B9E160A068401CA06010BDC046A4010020064802689D
:2058EC0040680021120040184FEA104041EB0201090408437047C0460820094010B504461C
:20590C00E088FFF717F9FF2808BF4FF0FF3003D0E0802046FDF768FB10BD1078802809D1EA
:20592C00508840F27F61814204D19088834208BF012000D00020704738B50D460446FFF7ED
:20594C008BFE002818BF6FF0040003D120462946FFF7F4FC38BD000010B504460448001D54
:20596C0003681BB10A4601202146984710BDC046B82600200EB50820ADF800000A20ADF8FD
:20598C0002004FF0FF3001906846FFF7F4FE0EBD0EB50820ADF800000A20ADF802004FF0F9
:2059AC00FF3001906846FFF7E6FE0EBD002948BF0021044A02EB8000026861F30502026095
:2059CC007047C046001008400548E2380078401E03D0401E03D100F095B8FEF7FDB97047C5
:2059EC009C1D002050B110F1040F08BF042006D010F1030F0CBF022001207047002070473D
:205A0C000246107820B1001F07D10120014601E000200121521CFDF753BF7047054A10B518
:205A2C00012304461046A38002680869E0609047A06010BDC87E000010B500F0A5FC80B2E6
:205A4C0060F30F0400F044FC80B260F31F44204610BD1CB5044660686946FFF733FA20B9FB
:205A6C00009860602046FDF7FFF91CBD08B503200121FEF774F8FFF74BFC41F2E471C2F2BB
:205A8C000001086008BD10B51D23FFF7A1F9012420B91B23FFF79CF900B90024204610BD60
:205AAC0008B58DF80220ADF8001005208DF8033004226946FEF78EFB08BD9EB514460A46CF
:205ACC0006AF009301463888234601900120FDF7F3FF9EBD41F29420C5F200000068C0F356
:205AEC0002400228C8BF4FF0FF3070470349487818B90348086300F067BB7047AC1C00203E
:205B0C00341800200448401C0078062818BF072801D1FEF7D7BA7047AC1C002038B50C4683
:205B2C000546FFF79BFEC2B21B2321462846FEF75DFA38BD222807D341F28C30C5F20000ED
:205B4C000068C0F30070704701207047222807D341F28C30C5F200000068C0F340707047D3
:205B6C0001207047202807D341F29830C5F200000068C0F30150704700207047222807D34F
:205B8C0041F28C30C5F200000068C0F3C06070470020704738B141F27C30C5F200000068A3
:205BAC00C0F30D00704740F2FF307047222807D341F28C30C5F200000068C0F34550704719
:205BCC000020704708B5406810F07F4F18BF6FF0020002D1FEF772FE002008BD08B54068F5
:205BEC0010F07F4F18BF6FF0020002D1FEF781FE002008BD0EB501900821ADF80010684687
:205C0C000521ADF80210FFF7B6FD0EBD0EB501900821ADF8001068460321ADF80210FFF776
:205C2C00AAFD0EBD0EB501900821ADF8001068460321ADF80210FFF79EFD0EBD0EB501907B
:205C4C000821ADF8001068460321ADF80210FFF792FD0EBD0EB501900821ADF800106846A1
:205C6C000321ADF80210FFF786FD0EBD04480821A0F844100149C164FFF70CB9A95800006D
:205C8C009822002010B50446A088FDF7ABF80028A06014BF00206FF0030010BD044B03F1C3
:205CAC0012010A8810430880986A00F015BBC046AC1C00200449B1F1FF3F07BF0020011C78
:205CCC000868091DFFF7DABCFFFFFFFF30B502FB01F403FB00444FF00005E2FB00542146A5
:205CEC00284630BD04498868401E886003D10869C96800F091BA7047A4010020012814BF91
:205D0C00002040F2FF700249086000207047C04600000460044802684068002112004018D9
:205D2C0041EB02017047C04608200940034804490068814201D0FDF756B9704798CA011039
:205D4C007047282038B141F28C30C5F200000068C0F3C14070470020704708B50820ADF875
:205D6C0000000C20ADF802006846FFF704FD08BD08B50090BDF8020000F0A6FABDF8000091
:205D8C0000F0EAFA08BD08B5406820B1006800F0B3FA002008BD6FF0020008BDADF1080D65
:205DAC0001208DF800009DF800000028FBD102B0704710B50446FFF785FC032000F054FA58
:205DCC00204600F05DFA10BD9EB506AF0093388813460A4601900020FDF76EFE9EBD0000CD
:205DEC00024803496D38083108607047B51800202423002003480249083001607047C046C4
:205E0C0050180020EC2100200248034A1321FEF7A5BBC046BC200020587E000038B5054691
:205E2C00FEF71EFB002400B1012400202C7138BD0248034A0521FEF791BBC0462424002030
:205E4C00CC7C0000024803497538091F08607047B51800202424002003490246403108689A
:205E6C00D04000F0010070478020024008B5FEF776FD18B9FDF7F2F8162800DAFEE708BDE6
:205E8C0070470349086070470149091F08607047DC2600204FF0FF31421E12F8010F491CD3
:205EAC000028FAD108467047812342EAC112037042F47C4282800023C370704708B500F018
:205ECC00A7F90248006800F09FF908BD84010020C3689A4204D0491E00F11000F8D1002046
:205EEC00704708B501228DF8000069460320FEF771F908BD00B50B21ADF12C0D684600F02E
:205F0C007FF90BB000BD0000024A00200821FEF71DB9C0469161000008B5FFF7EFFA002869
:205F2C0014BF8078002008BD10B504466068FCF767FDA060002010BD02490968416000200D
:205F4C007047C046BC7E00000246024808B5904708BDC046EC7A000010B500F039F90024DC
:205F6C0000B10124204610BD00B9024800EB01107047C0469826002010B5044600F0BAF8C1
:205F8C006060002010BD08B500F0FEF900F0A0F9002008BD08B500F02FF900F029F900202F
:205FAC0008BD08B540680C38FFF702F9002008BD10B5044600F098F96060002010BD0068EC
:205FCC0001092CBF042000F0030070470178B02901D1FEF7E3BD0120704701461628A8BF75
:205FEC00A0F1200108467047D0F80320C31D08461946FCF76BBC08B5022004230090FFF7C0
:20600C00B2F908BD08B5142001230090FFF7ABF908BD08B5132001230090FFF7A4F908BD04
:20602C0008B5152002230090FFF79DF908BD08B5122001230090FFF796F908BD8223037057
:20604C00818082710023C37070470000014A0621FEF77CB89D610000014A1021FEF76DBEFE
:20606C00A9610000014A1121FEF780BEBB61000001490320FEF7AEBA8561000008B501468A
:20608C0088684968884708BD08B5406800F0ACF8002008BD08B5406800F0A2F8002008BD0D
:2060AC0008B54068FFF784F8002008BD08B5406800F012F9002008BDEFF3108072B6704782
:2060CC0000207047EFF3108062B670470020704700281ABF016000200220704708B5062087
:2060EC000090FFF740F908BD0148007D7047C046A4010020014800797047C046A82300205E
:20610C0001B9014900F068B8A001000008B5F9F78FFFFFF70BFE08BD08B5FEF733FF0020BB
:20612C0008BD01468888891DFEF79CBC0146002288888A8070470146012288888A807047CF
:20614C004FF61843FFF7E9BB0120FEF7C3BD1D23FDF74CBF0220FEF7BDBD0320FEF7A0BD1E
:20616C001420FCF73FBE0122FDF730B90420FEF797BD3623FEF713BE0323FFF7AFBF0023B6
:20618C00FEF70DBE0823FEF70ABE3123FEF707BE0623FEF704BE3023FEF701BE1023FEF72E
:2061AC00FEBD0A23FEF7FBBD0723FEF7F8BD1123FEF7F5BD0123FEF724BE0223FEF721BE9B
:2061CC00FDF752BC00F098B8FDF7F2BC00207047808A704700207047DFF800F0F1C50110D2
:2061EC00DFF800F085C20110DFF800F081C20110DFF800F043C20110DFF800F055C101108E
:20620C00DFF800F00DC30110DFF800F021B30110DFF800F067BE0110DFF800F04DC201103A
:20622C00DFF800F049C20110DFF800F009C30110DFF800F03DC20110DFF800F08DC20110CD
:20624C00DFF800F095B70110DFF800F081C60110DFF800F055C00110DFF800F005C4011061
:20626C00DFF800F02DBF0110DFF800F045C00110DFF800F079AB0110DFF800F025B10110C7
:20628C00DFF800F0D1C70110DFF800F0ADB50110DFF800F0B5C10110DFF800F019AE01105B
:2062AC00DFF800F0D9C10110DFF800F0A9C10110DFF800F0EDB30110DFF800F0BDBE011053
:2062CC00DFF800F00DA80110DFF800F019C20110DFF800F049C10110DFF800F041AC0110CB
:2062EC00DFF800F0CDA00110DFF800F0D9B60110DFF800F0E5C10110DFF800F025C20110A9
:20630C00DFF800F0E3BF0110DFF800F0C1C20110DFF800F095C00110DFF800F029AF0110BF
:20632C00DFF800F03DC10110DFF800F009B70110DFF800F0C1C10110DFF800F079B5011083
:20634C00DFF800F085C10110DFF800F029B40110DFF800F0F5B80110DFF800F049BA0110FE
:20636C00DFF800F0E1B50110DFF800F0D5C00110DFF800F0D9C20110DFF800F0D5C2011054
:10638C00DFF800F013C10110DFF800F0F5C00110C8
:20639C0000415F696E697469616C697A6564506172616D733A20756E696E697469616C69B7
:2063BC007A656420506172616D732073747275637400486561704D696E5F637265617465C0
:2063DC002063616E6E6F7420686176652061207A65726F2073697A652076616C7565004879
:2063FC006561705374645F6372656174652063616E6E6F7420686176652061207A65726F85
:20641C002073697A652076616C756500486561705374645F616C6C6F6320616C69676E6D9D
:20643C00656E74206D757374206265206120706F776572206F66203200486561705374646B
:20645C0020696E7374616E636520746F74616C4672656553697A652069732067726561741B
:20647C006572207468616E207374617274696E672073697A6500486561705374645F616C22
:20649C006C6F63202D2072657175657374656420616C69676E6D656E74206973206772652A
:2064BC0061746572207468616E20616C6C6F77656400415F696E76616C69644C6F676765CC
:2064DC00723A20546865206C6F6767657220696420256420697320696E76616C69642E004C
:2064FC00415F63616E6E6F74466974496E746F4172673A2073697A656F6628466C6F61747E
:20651C0029203E2073697A656F66284172672900415F636C6F636B44697361626C65643ABF
:20653C002043616E6E6F7420637265617465206120636C6F636B20696E7374616E636520E6
:20655C007768656E2042494F532E636C6F636B456E61626C65642069732066616C73652EE6
:20657C0000415F626164546872656164547970653A2043616E6E6F74206372656174652FBE
:20659C0064656C657465206120436C6F636B2066726F6D20487769206F72205377692074DB
:2065BC0068726561642E00415F6E756C6C4576656E744D61736B733A206F724D61736B204A
:2065DC00616E6420616E644D61736B20617265206E756C6C2E00415F6E756C6C4576656E43
:2065FC007449643A20706F73746564206576656E744964206973206E756C6C2E00415F657C
:20661C0076656E74496E5573653A204576656E74206F626A65637420616C726561647920A8
:20663C00696E207573652E00415F626164436F6E746578743A206261642063616C6C696E0C
:20665C006720636F6E746578742E204D7573742062652063616C6C65642066726F6D2061DA
:20667C00205461736B2E00415F70656E645461736B44697361626C65643A2043616E6E6FE2
:20669C00742063616C6C204576656E745F70656E642829207768696C6520746865205461C6
:2066BC00736B206F7220537769207363686564756C65722069732064697361626C65642E2B
:2066DC00004D61696C626F785F63726561746527732062756653697A6520706172616D65D7
:2066FC0074657220697320696E76616C69642028746F6F20736D616C6C2900415F6E6F4572
:20671C0076656E74733A20546865204576656E742E737570706F7274734576656E7473203D
:20673C00666C61672069732064697361626C65642E00415F696E7654696D656F75743A20F3
